030291120180000002661                                                                                                                                                                                                                                                                                                                                                                                                                                                                                                                                                                                                                                                                                                                                                                                                                                                                                                                                                                                                                   
03100000026610031209588231892000000000000999000000001500000      24296943429112018SSPS   APARECIDO PEREIRA DA SILVA    09091966M09630000000002727001     URUGUAI                                 00156          P RES BELINHA OMETTOLIMEIRA               13483527SP000000000000000000000000019987314473000000000000                                                                      07306J1303201429012014R 58000642270711201814032014130420141                                                                                                                                                                                                                                                                                                                                                                                                                                                                                                                                                                                  
03100000026610031210159455898000000000000999000000001500000      19318299329112018SP     KATIA CRISTINA BIZARRO SANTOS 28101968F01310000000011400001     RUA ARMANDO COBRA                       00170          JD AQUARIUS         SAO JOSE DOS CAMPOS   12246002SP000000000000012039416753012997103188000000000000                                                                      0S6HFJ1510201401052014R 58000642280711201816102014151120141                                                                                                                                                                                                                                                                                                                                                                                                                                                                                                                                                                                  
03100000026610031210346759153000000000000999000000001500000        752997429112018SSPM   EUCLIDES MAGOSSO              16061955M11510000000004067001     RUI BARBOSA                             00106          JD IMPERADOR        VARZEA GRANDE         78125620MT065036861747000000000000065999822255000000000000                                                                      P1921J0711201411092014R 58000642310711201808112014071220141                                                                                                                                                                                                                                                                                                                                                                                                                                                                                                                                                                                  
03100000026610031110496814796000000000000599000000000700000      20876892929112018IFP    ARTHUR ANDERSON RITTER NUNES  23021984M04020000000004768001     EST PACUI                               00157          VARGEM GRANDE       RIO DE JANEIRO        22785160RJ021024282245021024282186021077636025000000000000                                                                      68079J1503201425012014R 58000642320711201816032014150420141                                                                                                                                                                                                                                                                                                                                                                                                                                                                                                                                                                                  
03100000026610031111885790708000000000000599000000000700000      21011995429112018DIC    CARLA S MENDONCA              12101987F10640000000002609001     COARI                                   00000          JARDIM OLAVO BILAC  DUQUE DE CAXIAS       25036490RJ000000000000021037776699021976794714000000000000                                                                      68891J2110201409072014R 58000642330811201822102014211120141                                                                                                                                                                                                                                                                                                                                                                                                                                                                                                                                                                                  
03100000026610031212511770857000000000000999000000001500000      22344962329112018SSP    SANDRA REGINA H A VASCONCELOS 06101969F01110000000003847001     COSTA BARROS BL L1                      01976          STIO PINHEIRINHO    SAO PAULO             03210001SP011020634525011959136630011995745550000000000000                                                                      68928J2606201404062014A 58000642342911201827062014260720141                                                                                                                                                                                                                                                                                                                                                                                                                                                                                                                                                                                  
03100000026610031212919203827000000000000999000000001500000      23209271029112018SSP    CLEONICE FERREIRA DA SILVA    05051968F03910000000002500001     R PROF ARACY BUENO CONTI                00069          JD ALVINOPOLIS      ATIBAIA               12943320SP000000000000011024278274011972675551000000000000                                                                      P4059J2612201414112014A 58000642352911201827122014260120152                                                                                                                                                                                                                                                                                                                                                                                                                                                                                                                                                                                  
03100000026610031212988939764000000000000999000000001500000        224042529112018SSPE   JOSIMAR OLIVEIRA DOS SANTOS   22081988M04020000000002545001     JOAO MASSUCATTI                         00026          CENTRO              SAO GABRIEL DA PALHA  29780000ES000000000000000000000000027997797999000000000000                                                                      0173WJ2603201414022014A 58000642362911201827032014260420141                                                                                                                                                                                                                                                                                                                                                                                                                                                                                                                                                                                  
03100000026610031213028987600000000000000999000000001500000       MG47862229112018DETR   ODORICO DE PAULA FILHO        02091954M11510000000001800001     CINCO                                   00030          VILA TANQUE         JOAO MONLEVADE        35930434MG031038515701000000000000031999631049000000000000                                                                      47880J0801201514112014R 58000642372711201409012015080220151                                                                                                                                                                                                                                                                                                                                                                                                                                                                                                                                                                                  
03100000026610031214108595769000000000000999000000001500000        323364629112018SPTC   FABRICIO VICENTE DOS SANTOS   20071986M04020000000001500001     R RIO PRETO                             00000          REGENCIA            LINHARES              29914035ES000000000000000000000000027995100611000000000000                                                                      01166J1302201428012014A 58000642382911201814022014130320141                                                                                                                                                                                                                                                                                                                                                                                                                                                                                                                                                                                  
03100000026610031214328038915000000000000999000000001500000       2128536529112018XSSP   LORENA GLADIS BRESSAN         29031954F11830000000005218001     AV PADRE ANCHIETA                       01450          CENTRO              PERUIBE               11750000SP013034558207013034584904013997588820000000000000                                                                      X8NNXJ2612201414112014R 58000642392711201427122014260120152                                                                                                                                                                                                                                                                                                                                                                                                                                                                                                                                                                                  
03100000026610031115298533892000000000000599000000000700000      28260058929112018SSPS   REGIS EDUARDO FIM             11041977M12020000000007543001     R JULIO FRANK DE ARRUDA                 00025          BOTAFOGO            CAMPINAS              13020190SP019033654810000000000000019984212770000000000000                                                                      0BNQMJ1302201527012015A 58000642412911201814022015130320151                                                                                                                                                                                                                                                                                                                                                                                                                                                                                                                                                                                  
03100000026610031216789023810000000000000999000000001500000       2629012129112018SSP    REGINALDO FRANCISCO           31051975M10610000000002542001     R ETTORI CHINELATO                      00020          JD IRACEMA          IRACEMAPOLIS          13495000SP019034564703019996289231019996438320000000000000                                                                      05406J1404201422032014A 58000642422911201815042014140520141                                                                                                                                                                                                                                                                                                                                                                                                                                                                                                                                                                                  
03100000026610031217320336847000000000000999000000001500000       2709930429112018SSP    FRANCILANE VIANA FERREIRA     26011975M05310000000008239001     SALVADOR MOTA                           00068          VILA INDUSTRIAL     SAO PAULO             03251180SP011023875944011974225905011963247274000000000000                                                                      P5987J0703201506022015A 58000642432911201808032015070420151                                                                                                                                                                                                                                                                                                                                                                                                                                                                                                                                                                                  
03100000026610031117897504824000000000000599000000000700000         17882429112018SSP    MARIA LUISA DOS SANTOS S  ROSA20091960F09650000000002800001     R ANTONIO GUILHERME DA CO               00270          VL FORMOSA          CAMPINAS              13045040SP019032790093019030328749019991881856000000000000                                                                      TA980J2102201527012015A 58000642442911201822022015210320152                                                                                                                                                                                                                                                                                                                                                                                                                                                                                                                                                                                  
03100000026610031218548407387000000000000999000000001500000      08521924429112018IFP    JUSTINO JOSE DA SILVA FILHO   17101961M20770000000001140001     RUA TIBRE         ILHA DO               00002          JARDIM CARIOCA      RIO DE JANEIRO        21921355RJ021033672869000000000000021964315135000000000000                                                                      70646J1012201809102018R 58000642452810201811122018100120191                                                                                                                                                                                                                                                                                                                                                                                                                                                                                                                                                                                  
03100000026610031118596618821000000000000599000000000700000       2041687529112018SSP    SERGIO HIDEYOSHI NAKAMURA     05061970M12020000000000255001     RUA ARMANDO MARITAN                     00111          VL OLIVEIRA         MOGI DAS CRUZES       08790340SP000000000000011047275680011982492534000000000000                                                                      T4427J1412201408102014R 58000642460511201415122014140120152                                                                                                                                                                                                                                                                                                                                                                                                                                                                                                                                                                                  
03100000026610031219481997855000000000000999000000001500000       2724072929112018XSSP   MARI A CIPRIANO               28101976F11830000000009900001     DR FELICE BUSCAGLIA                     00080          CIDADE SAO MATEUS   SAO PAULO             03963080SP011020196733011034419425011969689016000000000000                                                                      45418J2302201504022015A 58000642472911201824022015230320151                                                                                                                                                                                                                                                                                                                                                                                                                                                                                                                                                                                  
03100000026610031219839723472000000000000999000000001500000        174034929112018SDSP   EDJANE NUNES E SILVA          05011963F01130000000003420001     ADALBERTO SANTOS DUMONT                 00200          CENTRO              MORENO                54800000PE081035352028081984337991081984337991000000000000                                                                      68623J0903201506022015A 58000642482911201810032015090420151                                                                                                                                                                                                                                                                                                                                                                                                                                                                                                                                                                                  
03100000026610031220835620204000000000000999000000001500000       3730303229112018SSPS   WLICIS ROBERTO MOREIRA COHEN  22011966M02970000000002500001     AV IDALINA T SANFINS                    00441          B PONTE             ITATIBA               13251714SP011045381307011045344357011953856730000000000000                                                                      32027J2802201527012015A 58000642492911201801032015310320151                                                                                                                                                                                                                                                                                                                                                                                                                                                                                                                                                                                  
03100000026610031121296121801000000000000599000000000700000       2898774329112018SSP    JOSE CARLOS CONSTANTE         18041978M20770000000001435001     R ALCINDO NARDINI                       00348          JARDIM DULCI        SUMARE                13178512SP019031141920000000000000019996261203000000000000                                                                      590Q8J2104201610032016A 58000642502911201822042016210520162                                                                                                                                                                                                                                                                                                                                                                                                                                                                                                                                                                                  
03100000026610031221594994803000000000000999000000001500000      28527373529112018SSPS   VERA LUCIA DE ARAUJO SANTOS   24021974F20770000000004279001     VINTE                                   00281          CJ RES DOM PEDRO II SAO JOSE DOS CAMPOS   12232878SP012039663320000000000000012991348574000000000000                                                                      RK3NMJ1108201628072016A 58000642522911201812082016110920161                                                                                                                                                                                                                                                                                                                                                                                                                                                                                                                                                                                  
03100000026610031221815407808000000000000999000000001500000        B24672929112018RSSP   MARCELLO AGOSTINI             29071961M11830000000030000001     AL  LORENA                              00289          JARDIM PAULISTA     SAO PAULO             01424000SP000000000000044036591207011983399125000000000000                                                                      37915J0701201510122014A 58000642532911201808012015070220152                                                                                                                                                                                                                                                                                                                                                                                                                                                                                                                                                                                  
03100000026610031121959284843000000000000599000000000700000      26762294829112018SSP    RENATO RODRIGUES SAMPAIO      23071981M20770000000003420001     CAPITEO NEVES                           00248          CENTRO              NEVES PAULISTA        15120000SP000000000000000000000000017981920043000000000000                                                                      44860J2511201810102017R 58000642541310201726112018251220181                                                                                                                                                                                                                                                                                                                                                                                                                                                                                                                                                                                  
03100000026610031222174467895000000000000999000000001500000     008755799129112018DETR   DENIS TASHIRO KOBASHIGAWA     08061980M10610000000006020001     LUTECIA                                 00171          VILA CARRAO         SAO PAULO             03423000SP011020942870011038290544011997654379000000000000                                                                      P1861J2102201504022015A 58000642552911201822022015210320152                                                                                                                                                                                                                                                                                                                                                                                                                                                                                                                                                                                  
03100000026610031222333991453000000000000999000000001500000        151349029112018PE     ELIVALDO PINTO DE OLIVEIRA    23111958M20770000000005500001     ITAMBE                                  00040          PIEDADE             JABOATAO DOS GU       54420280PE081986279130081030880294081986279130000000000000                                                                      3849JJ2311201830102018A 58000642562911201824112018231220181                                                                                                                                                                                                                                                                                                                                                                                                                                                                                                                                                                                  
03100000026610031122621199372000000000000599000000000700000     226211993729112018CPF    MARIA DA PIEDADE G R SILVA    24091961F20770000000004743001     E                                       00009          CANDEIAS            VITORIA DA CONQUISTA  45028642BA077034242098000000000000077988419820000000000000                                                                      NH384J2112201508122015A 58000642572911201822122015210120161                                                                                                                                                                                                                                                                                                                                                                                                                                                                                                                                                                                  
03100000026610031222948996520000000000000999000000001500000       4027614029112018SSP    IVANA MARIA SILVA EVANGELISTA 19021962F01240000000001140001     VL S ROQUE  CONDOMINIO VA               00413          CAMPINAS DE BROTAS  SALVADOR              40276140BA071032338398071031154315071981040153000000000000                                                                      S5005J0502201407012014A 58000642582911201806022014050320141                                                                                                                                                                                                                                                                                                                                                                                                                                                                                                                                                                                  
03100000026610031123289787893000000000000599000000000700000        v54179729112018SSPS   GABRIEL ALEJANDRO BOCCA       27031973M01130000000008282001     IMIGRANTES                              00049          JD JUNCO            VINHEDO               13280000SP019037557789000000000000019991368206000000000000                                                                      RK07CJ2612201415102014R 58000642591911201427122014260120152                                                                                                                                                                                                                                                                                                                                                                                                                                                                                                                                                                                  
03100000026610031224085944304000000000000999000000001500000       3674924429112018SSP    GABRIEL DA CUNHA LEAL         17031958M20770000000003420001     R PURUBA                                00401          CIDADE IPAVA        SAO PAULO             04950090SP000000000000000000000000011949463488000000000000                                                                      47906J2511201803042018R 58000642601404201826112018251220181                                                                                                                                                                                                                                                                                                                                                                                                                                                                                                                                                                                  
03100000026610031224514683191000000000000999000000001500000         65211929112018SSPD   OSMAR FRANCISCO DA SILVA      10051960M11380000000001800001     Q QNP 32 CONJ Q CASA                    00038          CEILANDIA SUL       BRASILIA              72236217DF061033783106061985234681061985491606000000000000                                                                      54050J0103201414022014A 58000642612911201802032014010420141                                                                                                                                                                                                                                                                                                                                                                                                                                                                                                                                                                                  
03100000026610031125277479813000000000000599000000000700000      23851261729112018SSP    ERICA C NUNES ZEVOLE MAGNANI  06041976M01430000000003420001     R JOSE AZZIS SOBRINHO                   00970          AVANA DEVILE        NOVA GRANADA          15440000SP017032612677017032621697017991433571000000000000                                                                      S5005J1006201429042014A 58000642632911201811062014100720141                                                                                                                                                                                                                                                                                                                                                                                                                                                                                                                                                                                  
03100000026610031225278157828000000000000999000000001500000      24806958529112018SSP    FABIANA CRISTINA ALMEIDA      23021976F03910000000008581001     PASCOAL DA RIBEIRA                      00410          JARDIM CONSORCIO    SAO PAULO             04437090SP011023648031000000000000011991691020000000000000                                                                      V2916J0905201401042014A 58000642642911201810052014090620141                                                                                                                                                                                                                                                                                                                                                                                                                                                                                                                                                                                  
03100000026610031225531620900000000000000999000000001500000       1016042429112018SSPP   WILSON MARCOS KOTELAK         21021956M05320000000002859001     XV DE NOVEMBRO                          00621          CENTRO              CURITIBA              80020310PR041033202556041033202921041999620877000000000000                                                                      31538F0704201423022014A 58000642652911201808042014070520141                                                                                                                                                                                                                                                                                                                                                                                                                                                                                                                                                                                  
03100000026610031125688357886000000000000599000000000700000       2743628229112018XSSP   LIGIA MARIA DE ALMEIDA        25091978F20770000000001749001     R DOUTOR NICOLINO FALCI                 00013          AMERICANOPOLIS      SAO PAULO             04429300SP011056250136011050942050011981212681000000000000                                                                      CMG74J1504201610032016A 58000642662911201816042016150520162                                                                                                                                                                                                                                                                                                                                                                                                                                                                                                                                                                                  
03100000026610031126548430840000000000000599000000000700000      30424432629112018SSPS   RUTE CRISTINA DA CUNHA        29111977F20770000000001232001     WALTER BENEDITO COSTA                   00026          CJ HAB R NOVAES     CAMPINAS              13054241SP019032245162019983453961019995894956000000000000                                                                      67843J0901201605122015A 58000642672911201810012016090220161                                                                                                                                                                                                                                                                                                                                                                                                                                                                                                                                                                                  
03100000026610031226588195877000000000000999000000001500000      32011989029112018SSP    RUI DE LIMA SANTOS            28041977M02970000000004814001     R EZIO DA COSTA GAMA                    00475          JD B ESPERANCA      GUARUJA               11471050SP013033557204000000000000013997486568000000000000                                                                      34587F1307201403062014A 58000642682911201814072014130820141                                                                                                                                                                                                                                                                                                                                                                                                                                                                                                                                                                                  
03100000026610031126666216857000000000000599000000000700000       2800789629112018SSP    RUBENS DE GODOI SANTOS        11091977M11300000000002165001     OZARIAS ALVES TAVARES                   00258          CHACARAS CERES      SUZANO                08655290SP011047471586000000000000011975777832000000000000                                                                      58539J0804201413032014A 58000642692911201809042014080520141                                                                                                                                                                                                                                                                                                                                                                                                                                                                                                                                                                                  
03100000026610031126947674867000000000000599000000000700000      30191642129112018SSPS   JONAS AUGUSTO BARLETTA        01091977M11830000000003010001     SANTA CRUZ                              00286          VILA SANTA LIBANIA  BRAGANCA PAULISTA     12904000SP011040343733011040338214011963807087000000000000                                                                      57194J2002201504022015A 58000642702911201821022015200320151                                                                                                                                                                                                                                                                                                                                                                                                                                                                                                                                                                                  
03100000026610031126987635315000000000000599000000000700000        181373029112018SSPG   CLAUDIVAN ANDRADE SANTOS      06121965M11650000000002346001     R MDV 11                                00000SN Q28 L10MOINHO DOS VENTOS   GOIANIA               74371435GO062032036094000000000000062992932400000000000000                                                                      14965J0905201416042014A 58000642712911201810052014090620141                                                                                                                                                                                                                                                                                                                                                                                                                                                                                                                                                                                  
03100000026610031227077979873000000000000999000000001500000      26693380429112018SSP    TERCIO RICARDO PATRICIO       23011976M11830000000006173001     AVENIDA DE CILLO                        00068          CENTRO              SANTA BARBARA D OESTE 13450041SP019034551686000000000000019991315082000000000000                                                                      24525J2002201504022015A 58000642722911201821022015200320151                                                                                                                                                                                                                                                                                                                                                                                                                                                                                                                                                                                  
03100000026610031227560238840000000000000999000000001500000     28856239 229112018SP     CHEILA AMORIM                 01051979F01130000000001000001     R LUIZ JOSE CAVINATO                    00637          ANAVEC              LIMEIRA               13485161SP019034451428000000000000019981746402000000000000                                                                      47825J1412201425102014R 58000642740511201415122014140120152                                                                                                                                                                                                                                                                                                                                                                                                                                                                                                                                                                                  
03100000026610031227611697862000000000000999000000001500000      26475080329112018DETR   FABIOLA SANTOS MALAFAIA       03021980F05110000000009014001     MARIO C.JUNIOR- AP 1007                 00190          BARRA DA TIJUCA     RIO DE JANEIRO        22631030RJ000000000000021032586109021971197447000000000000                                                                      60766J1403201513022015A 58000642752911201815032015140420152                                                                                                                                                                                                                                                                                                                                                                                                                                                                                                                                                                                  
03100000026610031228414143881000000000000999000000001500000       2148907329112018SSPS   EDUARDO YUKIO YOSHIGAVA       21051972M10610000000002939001     ANTONIO J DOS SANTOS                    00422          JARDIM BRASIL       ARACATUBA             16074025SP000000000000000000000000018997662398000000000000                                                                      69376J1603201504022015A 58000642762911201817032015160420151                                                                                                                                                                                                                                                                                                                                                                                                                                                                                                                                                                                  
03100000026610031128588739844000000000000599000000000700000         41526329112018SSPS   ALEXANDRE DE LIMA CARDOSO     25051980M10640000000003601001     R VALETIM CESAR TAFNER                  00141          VILA NOVA           SOCORRO               13960000SP019998429985019038955369019991998850000000000000                                                                      57121J2602201506022015A 58000642772911201827022015260320152                                                                                                                                                                                                                                                                                                                                                                                                                                                                                                                                                                                  
03100000026610031129194776687000000000000599000000000700000       M177443729112018SSPM   ROBSON RIBEIRO GONZAGA        06051958M01020000000002248001     MONSENHOR TAVARES                       00322          CENTRO              CURVELO               35790000MG038037218165000000000000038988368165000000000000                                                                      22350J0703201504022015A 58000642782911201808032015070420151                                                                                                                                                                                                                                                                                                                                                                                                                                                                                                                                                                                  
03100000026610031229546729604000000000000999000000001500000     033815294329112018DETR   LUIZ DOS SANTOS               14071956M01020000000001140001     IBIA                                    00081          SAO BENEDITO        SANTA LUZIA           33120500MG031036352207031036371968031986825655000000000000                                                                      RK261J0710201408022014A 58000642792911201808102014071120141                                                                                                                                                                                                                                                                                                                                                                                                                                                                                                                                                                                  
03100000026610031229995927870000000000000999000000001500000       1189149129112018SSSP   LEONICE OLIVEIRA PERBONE PASSO17011959F11830000000001714001     NOSSA SENHORA APARECIDA                 00405          CIDADE NOVA         BOM JESUS DOS PERDOES 12955000SP011045971198000000000000011974395288000000000000                                                                      09601F1403201504022015A 58000642802911201815032015140420151                                                                                                                                                                                                                                                                                                                                                                                                                                                                                                                                                                                  
03100000026610031230736361880000000000000999000000001500000      42760294429112018SSPS   ELINES LEONEL BENICIO         13061982F20770000000003000001     EVARISTO JUNQUEIRA                      00794          COOPERATIVA         CAREACU               37556000MG035991541159000000000000035991541159000000000000                                                                      2J1X4F1811201404112014A 58000642812911201819112014181220141                                                                                                                                                                                                                                                                                                                                                                                                                                                                                                                                                                                  
03100000026610031230766729672000000000000999000000001500000       0056541629112018SSPE   ADELAR CORDERIO DA SILVA      09101955M09600000000009999001     RUA AFONSO BRETA SOBRINHO               00040          VILA BRETA          GOVERNADOR VALADARES  35032660MG000000000000033032212573033999822573000000000000                                                                      P3307F1402201431012014A 58000642822911201815022014140320141                                                                                                                                                                                                                                                                                                                                                                                                                                                                                                                                                                                  
03100000026610031232241801100000000000000999000000001500000      8086178 729112018SSP    MARTA CANDIA MACIEL CAZEIRO   16031963F02970000000003407001     MARIA JUSTINA DA SILVA                  00064          CONJUNTO RESIDENCIALSAO PAULO             04382025SP011026139303011050339163011995087303000000000000                                                                      06200J2608201825082016R 58000642831409201627082018260920181                                                                                                                                                                                                                                                                                                                                                                                                                                                                                                                                                                                  
03100000026610031232595952870000000000000999000000001500000       2934638129112018SSP    JULIANA MARIA DOS SANTOS      20021985F10660000000003527001     R ARNALDO CINTRA                        00190          VILA MOREIRA        SAO PAULO             03088000SP000000000000000000000000011995222191000000000000                                                                      LJ951J1303201504022015A 58000642852911201814032015130420151                                                                                                                                                                                                                                                                                                                                                                                                                                                                                                                                                                                  
03100000026610031133659925888000000000000599000000000700000      43113437629112018SSPS   MIRELE ANE ORTOLAN            03121984F10640000000005088001     DIONISIO FERREIRA REIS FL               00350          JARDIM WALKIRIA     SAO JOSE DO RIO PRETO 15085440SP000000000000000000000000017981178942000000000000                                                                      B6101J2601201513012015A 58000642862911201827012015260220151                                                                                                                                                                                                                                                                                                                                                                                                                                                                                                                                                                                  
03100000026610031133714096787000000000000599000000000700000       1129201229112018SSP    JOAO ANTONIO DA SILVA         22031952M02970000000003700001     AV D NESTOR RODIGUES PERL               00942          SANTA BARBARA       NITEROI               24141330RJ021026276427021026278111021998047321000000000000                                                                      69551J2507201720102015R 58000642871611201526072017250820171                                                                                                                                                                                                                                                                                                                                                                                                                                                                                                                                                                                  
03100000026610031233923787120000000000000999000000001500000               29112018SSP    NATAN SILVA                   15121959M00030000000001140001     CD RES SAO FCO QD3 CJ A                 00011          RECANTO DAS EMAS    BRASILIA              72669000DF061036266907061992662087061984486474000000000000                                                                      54050J0905201412042014A 58000642882911201810052014090620141                                                                                                                                                                                                                                                                                                                                                                                                                                                                                                                                                                                  
03100000026610031234144960463000000000000999000000001500000         60135629112018SSP    JOAO BATISTA DE LIMA          25061958M00130000000003665001     SILVA TELES                             01656          PARI                SAO PAULO             03026000SP011026926474011026933141011983728317000000000000                                                                      P0589J0703201504022015A 58000642892911201808032015070420151                                                                                                                                                                                                                                                                                                                                                                                                                                                                                                                                                                                  
03100000026610031234409022857000000000000999000000001500000      33972780929112018SSP    STEFANIE MARIA DA SILVA       06061986F20770000000003190001     AV KATISUTOSHI NAITO                    02400          CIDADE BOA VIST     SUZANO                08693280SP011047492927011964247558011981632641000000000000                                                                      LR541J1306201416052014A 58000642902911201814062014130720141                                                                                                                                                                                                                                                                                                                                                                                                                                                                                                                                                                                  
03100000026610031234652861893000000000000999000000001500000      24829124529112018SSPS   CREUZA SOARES DE LIMA ESTEBAN 31051960F11830000000001350001     MONTE ALEGRE                            00510          CENTRO              VOTORANTIM            18110065SP015032438289000000000000015997972171000000000000                                                                      RK640J0905201404042014A 58000642912911201810052014090620141                                                                                                                                                                                                                                                                                                                                                                                                                                                                                                                                                                                  
03100000026610031134865390430000000000000599000000000700000      36868899929112018SSPS   ROSANIA AQUINO NUNES SILVA    24031964F02970000000001785001     R MANUEL DE MACEDO                      01990          PQ RIBEIRAO PRETO   RIBEIRAO PRETO        14031540SP016032891242016039190902016997983170000000000000                                                                      59099J1303201513022015A 58000642922911201814032015130420152                                                                                                                                                                                                                                                                                                                                                                                                                                                                                                                                                                                  
03100000026610031237025920835000000000000999000000001500000      41887393829112018SSPS   LEANDRO RODRIGUES DOS SANTOS  26041988M10640000000002185001     R CAPINZAL                              00165          JARDIM NASCENTE     ITAQUAQUECETUBA       08588179SP011046487426000000000000011961747529000000000000                                                                      LJ820J2303201414022014A 58000642932911201824032014230420141                                                                                                                                                                                                                                                                                                                                                                                                                                                                                                                                                                                  
03100000026610031237635138847000000000000999000000001500000      35822226629112018SSPS   GUILHERME EDUARDO SILVA SANTOS16071992M10660000000001140001     FERNANDO PESSOA                         00098          VILA SANTO ANTONIO  JANDIRA               06604000SP011047897335000000000000011982051281000000000000                                                                      LJ820J2605201412042014A 58000642942911201827052014260620141                                                                                                                                                                                                                                                                                                                                                                                                                                                                                                                                                                                  
03100000026610031238055294810000000000000999000000001500000         90909029112018SSP    CAMILA IDALINO CLEMENTINO     21091990F01240000000001140001     GUAIMBE                                 00156          MOOCA               SAO PAULO             03118030SP000000000000011031243519011974443103000000000000                                                                      S5005J2606201421052014A 58000642962911201827062014260720141                                                                                                                                                                                                                                                                                                                                                                                                                                                                                                                                                                                  
03100000026610031238141947800000000000000999000000001500000       4346757329112018SSPS   NATALIA MORINE MAIA           14041995F10610000000002209001     CIRCULAR   BL 601 AP3                   00000          RAPOSO TAVARES      SAO PAULO             05547025SP011959936767011037832228011954699415000000000000                                                                      16020J2602201506022015A 58000642972911201827022015260320151                                                                                                                                                                                                                                                                                                                                                                                                                                                                                                                                                                                  
03100000026610031238559560300000000000000999000000001500000     200401016129112018SSPC   FRANCISCA LUCIA DE OLIVEIRA   14061964F09650000000002585001     ROSINHA SAMPAIO                         01341          JARDIM GUANABARA    FORTALEZA             60346251CE085030475968000000000000085988825779000000000000                                                                      4O7G4J0907201414062014A 58000642982911201810072014090820141                                                                                                                                                                                                                                                                                                                                                                                                                                                                                                                                                                                  
03100000026610031238613934846000000000000999000000001500000       4691815829112018SP     RONEI HENRIQUE ALMEIDA        15031990M11830000000001140001     LUZIA RIZZO PESENTE                     00204          VERA TEREZA         CAIEIRAS              07718055SP011044451425000000000000011956474447000000000000                                                                      46110J2104201422032014A 58000642992911201822042014210520141                                                                                                                                                                                                                                                                                                                                                                                                                                                                                                                                                                                  
03100000026610031239451596879000000000000999000000001500000      39974996229112018SSP    ANTONIO EMILIANO DE JESUS     01011964M10610000000003407001     DOUTOR MARIO DE CAMPOS                  00542          AMERICANOPOLIS      SAO PAULO             04336020SP011041284255000000000000011959116459000000000000                                                                      RK24PJ1404201415032014A 58000643002911201815042014140520141                                                                                                                                                                                                                                                                                                                                                                                                                                                                                                                                                                                  
03100000026610031240069150559000000000000999000000001500000      29494247629112018SSP    PASCOAL PINTO DE SOUZA        11021965M03960000000001140001     R SARAMBE                               00066          PARQUE JOAO RAMALHO SANTO ANDRE           09290190SP000000000000011044762814011972218642000000000000                                                                      S5005J0706201401052014A 58000643012911201808062014070720141                                                                                                                                                                                                                                                                                                                                                                                                                                                                                                                                                                                  
03100000026610031141249779804000000000000599000000000700000      48256696629112018SSP    LUIZ AUGUSTO SILVA CARDOSO    20041992M10640000000002877001     JOAQUIM PEREIRA CARMARGO                00697          TERESA              SAO LOURENCO DA SERRA 06890000SP011023791674000000000000011982480414000000000000                                                                      SXX0NJ2103201401032014A 58000643022911201822032014210420141                                                                                                                                                                                                                                                                                                                                                                                                                                                                                                                                                                                  
03100000026610031141281942634000000000000599000000000700000       2329285429112018SSP    CYNTHIA DUARTE DIAS           21101964F20770000000005000001     EURICO FELINGALDE                       00115          JARDIM UNIVERSITARIOESPIRITO S. DO PINHAL 13990000SP019036512727019036615466019903651272000000000000                                                                      TKN99J2511201818072017R 58000643031308201726112018251220181                                                                                                                                                                                                                                                                                                                                                                                                                                                                                                                                                                                  
03100000026610031241359658653000000000000999000000001500000      99999999929112018SSP    MARIA LUCIA LIMA              01011999F02970000000003420001     AV PRESEIDENTE J KUBISHEC               00180          CENTRO              SAO BENTO DO SAPUCAI  12490000SP012039711844000000000000012997847602000000000000                                                                      P5086J2510201703022016R 58000643042803201626102017251120171                                                                                                                                                                                                                                                                                                                                                                                                                                                                                                                                                                                  
03100000026610031241563762811000000000000999000000001500000      35669326029112018SSP    ANA LUISA MANFRIN TEIXEIRA    16051992F09390000000003909001     R ALCANTARILLA                          00340          VL ANDRADE          SAO PAULO             05717170SP011038046958000000000000011992095712000000000000                                                                      17649F1310201408082014A 58000643052911201814102014131120141                                                                                                                                                                                                                                                                                                                                                                                                                                                                                                                                                                                  
03100000026610031241624814824000000000000999000000001500000      36901093029112018SSPS   GUSTAVO ALMEIDA MATURANO      24051995M00030000000003785001     ANTONIO JOAO                            00655          SITIO DO MORRO      SAO PAULO             02553050SP011038580992011050707244011970271701000000000000                                                                      18472J1406201421052014A 58000643072911201815062014140720141                                                                                                                                                                                                                                                                                                                                                                                                                                                                                                                                                                                  
03100000026610031241983625809000000000000999000000001500000      42371860529112018SSPS   JOAO HYRCANO ANDRE BELO       12051994M04020000000003331001     EGAS DOS SANTOS                         00107          JD SAO PAULO        EMBU-GUACU            06900000SP011046615220000000000000011983925882000000000000                                                                      P1579J0903201512022015A 58000643082911201810032015090420151                                                                                                                                                                                                                                                                                                                                                                                                                                                                                                                                                                                  
03100000026610031241984182846000000000000999000000001500000      48598175029112018SSPS   EVERTON WILSON OLIVEIRA DOS SA15111992M01320000000001426001     AV SAO SEBASTIAO                        01100          CENTRO              IBIUNA                18150000SP015032482246000000000000015998490075000000000000                                                                      32773J2602201504022015A 58000643092911201827022015260320151                                                                                                                                                                                                                                                                                                                                                                                                                                                                                                                                                                                  
03100000026610031242262194068000000000000999000000001500000     203185200329112018SSSR   PAULO JOEL DA SILVEIRA        31011964M20770000000003420001     PAISSANDU                               00290          TARUMA              VIAMAO                94415380RS051034852327051034984082051995249726000000000000                                                                      40540J1511201820042018R 58000643100405201816112018151220181                                                                                                                                                                                                                                                                                                                                                                                                                                                                                                                                                                                  
03100000026610031243722350115000000000000999000000001500000         41489229112018OUTR   LUCIANE VIANA DE OLIVEIRA     15101966F20770000000002500001     AV DAS FLORES                           00424          JARDIM INDEPENDENCIAPONTA PORA            79901070MS000000000000067034314890067996672765000000000000                                                                      ZX844J2511201806042018R 58000643111404201826112018251220181                                                                                                                                                                                                                                                                                                                                                                                                                                                                                                                                                                                  
03100000026610031144139101920000000000000599000000000700000       3371159029112018SPPR   ARLETI A BELTER ZARPELAO      07031961F09630000000002905001     PROF SEZINO MALHERBI                    00410          CHAPADA             PONTA GROSSA          84062280PR042030274726000000000000042999313143000000000000                                                                      RK42BJ1802201421012014A 58000643122911201819022014180320141                                                                                                                                                                                                                                                                                                                                                                                                                                                                                                                                                                                  
03100000026610031244344422520000000000000999000000001500000     029889774129112018SSP    MAURINA BORGES E ASSIS        10101963F02970000000001817001     R ANTONIO C MAGALHAES                   00114C CASA    SUSSUARANA          SALVADOR              41215400BA071986159168071031169202071987285955000000000000                                                                      27QQQJ0710201410092014A 58000643132911201808102014071120141                                                                                                                                                                                                                                                                                                                                                                                                                                                                                                                                                                                  
03100000026610031245449848900000000000000999000000001500000       1526802629112018SSPP   GILBERTO MOLENDA              17031962M00100000000011400001     R ITATIAIA                              01070          PORTAO              CURITIBA              81070100PR041033459698000000000000041998337190000000000000                                                                      29166J0905201408042014A 58000643142911201810052014090620141                                                                                                                                                                                                                                                                                                                                                                                                                                                                                                                                                                                  
03100000026610031247229586020000000000000999000000001500000     503004266629112018SSPR   VALDERESA LANDFELD FARIAS     19011965F05110000000002411001     CASTELO BRANCO                          00072          ERICA               PANAMBI               98280000RS055033753797000000000000055991202273000000000000                                                                      RK703J1302201424012014A 58000643152911201814022014130320141                                                                                                                                                                                                                                                                                                                                                                                                                                                                                                                                                                                  
03100000026610031148877522968000000000000599000000000700000        139656629112018SSP    SONIA DEGAN CASTELLAIN        29081965F20770000000001140001     JOSE MARCELINO RODRIGUES                00231          BRILHANTE II        ITAJAI                88318332SC000000000000000000000000047988299352000000000000                                                                      53349J1503201605022016A 58000643162911201816032016150420161                                                                                                                                                                                                                                                                                                                                                                                                                                                                                                                                                                                  
03100000026610031249973223772000000000000999000000001500000        910794529112018SSPS   JAQUES ALEXANDRE DE MELLO     13101959M01110000000003420001     RUA ERNESTO DE OLIVEIRA                 00190          JDM VILA MARIANA    SAO PAULO             04116170SP011055712657011022522606011997516819000000000000                                                                      P3004J1504201421032014A 58000643182911201816042014150520141                                                                                                                                                                                                                                                                                                                                                                                                                                                                                                                                                                                  
03100000026610031250987291149000000000000999000000001500000        725632029112018SSPG   FRANCISCO ANTONIO ALBERNAZ    18061972M11830000000013518001     PEDRO VIEIRA JANUARIO                   00064          CENTRO              BELA VISTA DE GOIAS   75240000GO062035512290062035511530062999689816000000000000                                                                      FNP83J0103201504022015A 58000643192911201802032015010420151                                                                                                                                                                                                                                                                                                                                                                                                                                                                                                                                                                                  
03100000026610031251061376915000000000000999000000001500000       3676001029112018SSPP   DILMAR MIRANDA                03011964M20770000000008927001     R CAPITAO TOBIAS PEREIRA                01539          CARIOCA             SAO JOSE DOS PINHAIS  83005050PR041033820756041030580345041991523521000000000000                                                                      P276XJ1103201504022015A 58000643202911201812032015110420151                                                                                                                                                                                                                                                                                                                                                                                                                                                                                                                                                                                  
03100000026610031251376628953000000000000999000000001500000       7550596529112018SSP    NARGARIDA MARIA CARVALHO      07091964F09650000000001140001     R BALBINA DE MATOS                      01462          JARDIM CLIMAX       DOURADOS              79820090MS067034267025067996476142067999468195000000000000                                                                      42945J1306201421052014A 58000643212911201814062014130720141                                                                                                                                                                                                                                                                                                                                                                                                                                                                                                                                                                                  
03100000026610031252047199468000000000000999000000001500000        234321229112018SSPP   JOSE CARLOS MARQUES           25121966M02970000000001832001     QUERENCIA DO NORTE                      00122          CURADO              RECIFE                50940540PE081032495122000000000000000000000000000000000000                                                                      CM194F2102201506022015A 58000643222911201822022015210320152                                                                                                                                                                                                                                                                                                                                                                                                                                                                                                                                                                                  
03100000026610031153113039720000000000000599000000000700000        343660329112018IFP    NEISI LUCIA RODRIGUES ALVES   21041956F02970000000011400001     NILZA CHIAPETA FADIGAS                  00347          VARZEA              TERESOPOLIS           25963150RJ000000000000021026422312021994511456000000000000                                                                      30176J2602201506022015A 58000643232911201827022015260320152                                                                                                                                                                                                                                                                                                                                                                                                                                                                                                                                                                                  
039291120180000089                                                                                                                                                                                                                                                                                                                                                                                                                                                                                                                                                                                                                                                                                                                                                                                                                                                                                                                                                                                                                      